{
  "contractName": "Game",
  "abi": [
    {
      "inputs": [],
      "payable": false,
      "stateMutability": "nonpayable",
      "type": "constructor"
    },
    {
      "constant": true,
      "inputs": [],
      "name": "current_supply",
      "outputs": [
        {
          "internalType": "uint256",
          "name": "",
          "type": "uint256"
        }
      ],
      "payable": false,
      "stateMutability": "view",
      "type": "function"
    },
    {
      "constant": true,
      "inputs": [],
      "name": "game_number",
      "outputs": [
        {
          "internalType": "uint256",
          "name": "",
          "type": "uint256"
        }
      ],
      "payable": false,
      "stateMutability": "view",
      "type": "function"
    },
    {
      "constant": true,
      "inputs": [],
      "name": "owner",
      "outputs": [
        {
          "internalType": "address",
          "name": "",
          "type": "address"
        }
      ],
      "payable": false,
      "stateMutability": "view",
      "type": "function"
    },
    {
      "constant": true,
      "inputs": [],
      "name": "total_supply",
      "outputs": [
        {
          "internalType": "uint256",
          "name": "",
          "type": "uint256"
        }
      ],
      "payable": false,
      "stateMutability": "view",
      "type": "function"
    },
    {
      "constant": true,
      "inputs": [
        {
          "internalType": "uint256",
          "name": "nonce",
          "type": "uint256"
        }
      ],
      "name": "gen_random_supply",
      "outputs": [
        {
          "internalType": "uint256",
          "name": "val",
          "type": "uint256"
        }
      ],
      "payable": false,
      "stateMutability": "view",
      "type": "function"
    },
    {
      "constant": false,
      "inputs": [
        {
          "internalType": "address",
          "name": "rx",
          "type": "address"
        }
      ],
      "name": "generateTokens",
      "outputs": [],
      "payable": false,
      "stateMutability": "nonpayable",
      "type": "function"
    },
    {
      "constant": false,
      "inputs": [
        {
          "internalType": "address",
          "name": "rx",
          "type": "address"
        }
      ],
      "name": "exchangeTickets",
      "outputs": [],
      "payable": false,
      "stateMutability": "nonpayable",
      "type": "function"
    },
    {
      "constant": false,
      "inputs": [],
      "name": "getToken",
      "outputs": [
        {
          "internalType": "contract LTO",
          "name": "t",
          "type": "address"
        }
      ],
      "payable": false,
      "stateMutability": "nonpayable",
      "type": "function"
    },
    {
      "constant": false,
      "inputs": [],
      "name": "endGame",
      "outputs": [],
      "payable": false,
      "stateMutability": "nonpayable",
      "type": "function"
    },
    {
      "constant": true,
      "inputs": [
        {
          "internalType": "address",
          "name": "rx",
          "type": "address"
        }
      ],
      "name": "didGameEnd",
      "outputs": [
        {
          "internalType": "bool",
          "name": "gameStatus",
          "type": "bool"
        }
      ],
      "payable": false,
      "stateMutability": "view",
      "type": "function"
    }
  ],
  "bytecode": "0x60806040526103e860015534801561001657600080fd5b5033600460006101000a81548173ffffffffffffffffffffffffffffffffffffffff021916908373ffffffffffffffffffffffffffffffffffffffff16021790555061006960005461010260201b60201c565b600281905550600060025460005460405161008390610185565b8083815260200182815260200192505050604051809103906000f0801580156100b0573d6000803e3d6000fd5b50905080600560006101000a81548173ffffffffffffffffffffffffffffffffffffffff021916908373ffffffffffffffffffffffffffffffffffffffff160217905550600060038190555050610192565b600080620186a0423385604051602001808481526020018373ffffffffffffffffffffffffffffffffffffffff1673ffffffffffffffffffffffffffffffffffffffff1660601b815260140182815260200193505050506040516020818303038152906040528051906020012060001c8161017957fe5b06905080915050919050565b611c408061087283390190565b6106d1806101a16000396000f3fe608060405234801561001057600080fd5b506004361061009e5760003560e01c80636aea5f1b116100665780636aea5f1b146101d55780636cbc2ded146101f35780638da5cb5b146101fd578063d245312514610247578063f7d159d8146102a35761009e565b806308022327146100a357806312655ee1146100e757806321df0da71461012b5780633940e9ee146101755780635e7137fd14610193575b600080fd5b6100e5600480360360208110156100b957600080fd5b81019080803573ffffffffffffffffffffffffffffffffffffffff1690602001909291905050506102c1565b005b610129600480360360208110156100fd57600080fd5b81019080803573ffffffffffffffffffffffffffffffffffffffff16906020019092919050505061039b565b005b610133610563565b604051808273ffffffffffffffffffffffffffffffffffffffff1673ffffffffffffffffffffffffffffffffffffffff16815260200191505060405180910390f35b61017d61058d565b6040518082815260200191505060405180910390f35b6101bf600480360360208110156101a957600080fd5b8101908080359060200190929190505050610593565b6040518082815260200191505060405180910390f35b6101dd610616565b6040518082815260200191505060405180910390f35b6101fb61061c565b005b61020561062a565b604051808273ffffffffffffffffffffffffffffffffffffffff1673ffffffffffffffffffffffffffffffffffffffff16815260200191505060405180910390f35b6102896004803603602081101561025d57600080fd5b81019080803573ffffffffffffffffffffffffffffffffffffffff169060200190929190505050610650565b604051808215151515815260200191505060405180910390f35b6102ab610696565b6040518082815260200191505060405180910390f35b600560009054906101000a900473ffffffffffffffffffffffffffffffffffffffff1673ffffffffffffffffffffffffffffffffffffffff166379cc67908260646040518363ffffffff1660e01b8152600401808373ffffffffffffffffffffffffffffffffffffffff1673ffffffffffffffffffffffffffffffffffffffff16815260200182815260200192505050600060405180830381600087803b15801561036b57600080fd5b505af115801561037f573d6000803e3d6000fd5b505050506064600354036003819055506103988161039b565b50565b60006002905060006064423384604051602001808481526020018373ffffffffffffffffffffffffffffffffffffffff1673ffffffffffffffffffffffffffffffffffffffff1660601b815260140182815260200193505050506040516020818303038152906040528051906020012060001c8161041557fe5b069050600560009054906101000a900473ffffffffffffffffffffffffffffffffffffffff1673ffffffffffffffffffffffffffffffffffffffff166323b872dd600460009054906101000a900473ffffffffffffffffffffffffffffffffffffffff1685846040518463ffffffff1660e01b8152600401808473ffffffffffffffffffffffffffffffffffffffff1673ffffffffffffffffffffffffffffffffffffffff1681526020018373ffffffffffffffffffffffffffffffffffffffff1673ffffffffffffffffffffffffffffffffffffffff1681526020018281526020019350505050602060405180830381600087803b15801561051757600080fd5b505af115801561052b573d6000803e3d6000fd5b505050506040513d602081101561054157600080fd5b8101908080519060200190929190505050508060035401600381905550505050565b6000600560009054906101000a900473ffffffffffffffffffffffffffffffffffffffff16905090565b60025481565b600080620186a0423385604051602001808481526020018373ffffffffffffffffffffffffffffffffffffffff1673ffffffffffffffffffffffffffffffffffffffff1660601b815260140182815260200193505050506040516020818303038152906040528051906020012060001c8161060a57fe5b06905080915050919050565b60035481565b600160005401600081905550565b600460009054906101000a900473ffffffffffffffffffffffffffffffffffffffff1681565b6000806127108373ffffffffffffffffffffffffffffffffffffffff168161067457fe5b06905060015481111561068b576001915050610691565b60009150505b919050565b6000548156fea265627a7a72315820c6bcc15f9a4fbf059f65cff7394355192960faf442da0d1cb3023152a2ef619464736f6c6343000510003260806040526040518060400160405280600581526020017f4c6f74746f0000000000000000000000000000000000000000000000000000008152506003908051906020019062000051929190620003b1565b506040518060400160405280600381526020017f4c544f0000000000000000000000000000000000000000000000000000000000815250600590805190602001906200009f929190620003b1565b506000600655348015620000b257600080fd5b5060405162001c4038038062001c4083398181016040526040811015620000d857600080fd5b810190808051906020019092919080519060200190929190505050816007819055506200010e336007546200015e60201b60201c565b33600960006101000a81548173ffffffffffffffffffffffffffffffffffffffff021916908373ffffffffffffffffffffffffffffffffffffffff16021790555080600481905550505062000460565b600073ffffffffffffffffffffffffffffffffffffffff168273ffffffffffffffffffffffffffffffffffffffff16141562000202576040517f08c379a000000000000000000000000000000000000000000000000000000000815260040180806020018281038252601f8152602001807f45524332303a206d696e7420746f20746865207a65726f20616464726573730081525060200191505060405180910390fd5b6200021e816002546200032860201b620012da1790919060201c565b6002819055506200027c816000808573ffffffffffffffffffffffffffffffffffffffff1673ffffffffffffffffffffffffffffffffffffffff168152602001908152602001600020546200032860201b620012da1790919060201c565b6000808473ffffffffffffffffffffffffffffffffffffffff1673ffffffffffffffffffffffffffffffffffffffff168152602001908152602001600020819055508173ffffffffffffffffffffffffffffffffffffffff16600073ffffffffffffffffffffffffffffffffffffffff167fddf252ad1be2c89b69c2b068fc378daa952ba7f163c4a11628f55a4df523b3ef836040518082815260200191505060405180910390a35050565b600080828401905083811015620003a7576040517f08c379a000000000000000000000000000000000000000000000000000000000815260040180806020018281038252601b8152602001807f536166654d6174683a206164646974696f6e206f766572666c6f77000000000081525060200191505060405180910390fd5b8091505092915050565b828054600181600116156101000203166002900490600052602060002090601f016020900481019282601f10620003f457805160ff191683800117855562000425565b8280016001018555821562000425579182015b828111156200042457825182559160200191906001019062000407565b5b50905062000434919062000438565b5090565b6200045d91905b80821115620004595760008160009055506001016200043f565b5090565b90565b6117d080620004706000396000f3fe608060405234801561001057600080fd5b50600436106101215760003560e01c80635beedad2116100ad578063a9059cbb11610071578063a9059cbb146105df578063c50497ae14610645578063dd62ed3e14610663578063e3d670d7146106db578063f36675171461073357610121565b80635beedad21461043257806370a082311461045057806379cc6790146104a857806395d89b41146104f6578063a457c2d71461057957610121565b806318160ddd116100f457806318160ddd146102dc57806323b872dd146102fa578063313ce56714610380578063395093511461039e57806342966c681461040457610121565b806306fdde031461012657806307546172146101a9578063095ea7b3146101f357806317d7de7c14610259575b600080fd5b61012e61077d565b6040518080602001828103825283818151815260200191508051906020019080838360005b8381101561016e578082015181840152602081019050610153565b50505050905090810190601f16801561019b5780820380516001836020036101000a031916815260200191505b509250505060405180910390f35b6101b161081b565b604051808273ffffffffffffffffffffffffffffffffffffffff1673ffffffffffffffffffffffffffffffffffffffff16815260200191505060405180910390f35b61023f6004803603604081101561020957600080fd5b81019080803573ffffffffffffffffffffffffffffffffffffffff16906020019092919080359060200190929190505050610841565b604051808215151515815260200191505060405180910390f35b61026161085f565b6040518080602001828103825283818151815260200191508051906020019080838360005b838110156102a1578082015181840152602081019050610286565b50505050905090810190601f1680156102ce5780820380516001836020036101000a031916815260200191505b509250505060405180910390f35b6102e4610901565b6040518082815260200191505060405180910390f35b6103666004803603606081101561031057600080fd5b81019080803573ffffffffffffffffffffffffffffffffffffffff169060200190929190803573ffffffffffffffffffffffffffffffffffffffff1690602001909291908035906020019092919050505061090b565b604051808215151515815260200191505060405180910390f35b6103886109e4565b6040518082815260200191505060405180910390f35b6103ea600480360360408110156103b457600080fd5b81019080803573ffffffffffffffffffffffffffffffffffffffff169060200190929190803590602001909291905050506109ea565b604051808215151515815260200191505060405180910390f35b6104306004803603602081101561041a57600080fd5b8101908080359060200190929190505050610a9d565b005b61043a610ab1565b6040518082815260200191505060405180910390f35b6104926004803603602081101561046657600080fd5b81019080803573ffffffffffffffffffffffffffffffffffffffff169060200190929190505050610ab7565b6040518082815260200191505060405180910390f35b6104f4600480360360408110156104be57600080fd5b81019080803573ffffffffffffffffffffffffffffffffffffffff16906020019092919080359060200190929190505050610aff565b005b6104fe610b0d565b6040518080602001828103825283818151815260200191508051906020019080838360005b8381101561053e578082015181840152602081019050610523565b50505050905090810190601f16801561056b5780820380516001836020036101000a031916815260200191505b509250505060405180910390f35b6105c56004803603604081101561058f57600080fd5b81019080803573ffffffffffffffffffffffffffffffffffffffff16906020019092919080359060200190929190505050610bab565b604051808215151515815260200191505060405180910390f35b61062b600480360360408110156105f557600080fd5b81019080803573ffffffffffffffffffffffffffffffffffffffff16906020019092919080359060200190929190505050610c78565b604051808215151515815260200191505060405180910390f35b61064d610c96565b6040518082815260200191505060405180910390f35b6106c56004803603604081101561067957600080fd5b81019080803573ffffffffffffffffffffffffffffffffffffffff169060200190929190803573ffffffffffffffffffffffffffffffffffffffff169060200190929190505050610c9c565b6040518082815260200191505060405180910390f35b61071d600480360360208110156106f157600080fd5b81019080803573ffffffffffffffffffffffffffffffffffffffff169060200190929190505050610d23565b6040518082815260200191505060405180910390f35b61073b610d3b565b604051808273ffffffffffffffffffffffffffffffffffffffff1673ffffffffffffffffffffffffffffffffffffffff16815260200191505060405180910390f35b60038054600181600116156101000203166002900480601f0160208091040260200160405190810160405280929190818152602001828054600181600116156101000203166002900480156108135780601f106107e857610100808354040283529160200191610813565b820191906000526020600020905b8154815290600101906020018083116107f657829003601f168201915b505050505081565b600960009054906101000a900473ffffffffffffffffffffffffffffffffffffffff1681565b600061085561084e610d65565b8484610d6d565b6001905092915050565b606060058054600181600116156101000203166002900480601f0160208091040260200160405190810160405280929190818152602001828054600181600116156101000203166002900480156108f75780601f106108cc576101008083540402835291602001916108f7565b820191906000526020600020905b8154815290600101906020018083116108da57829003601f168201915b5050505050905090565b6000600254905090565b6000610918848484610f64565b6109d984610924610d65565b6109d4856040518060600160405280602881526020016116c160289139600160008b73ffffffffffffffffffffffffffffffffffffffff1673ffffffffffffffffffffffffffffffffffffffff168152602001908152602001600020600061098a610d65565b73ffffffffffffffffffffffffffffffffffffffff1673ffffffffffffffffffffffffffffffffffffffff1681526020019081526020016000205461121a9092919063ffffffff16565b610d6d565b600190509392505050565b60065481565b6000610a936109f7610d65565b84610a8e8560016000610a08610d65565b73ffffffffffffffffffffffffffffffffffffffff1673ffffffffffffffffffffffffffffffffffffffff16815260200190815260200160002060008973ffffffffffffffffffffffffffffffffffffffff1673ffffffffffffffffffffffffffffffffffffffff168152602001908152602001600020546112da90919063ffffffff16565b610d6d565b6001905092915050565b610aae610aa8610d65565b82611362565b50565b60045481565b60008060008373ffffffffffffffffffffffffffffffffffffffff1673ffffffffffffffffffffffffffffffffffffffff168152602001908152602001600020549050919050565b610b09828261151a565b5050565b60058054600181600116156101000203166002900480601f016020809104026020016040519081016040528092919081815260200182805460018160011615610100020316600290048015610ba35780601f10610b7857610100808354040283529160200191610ba3565b820191906000526020600020905b815481529060010190602001808311610b8657829003601f168201915b505050505081565b6000610c6e610bb8610d65565b84610c69856040518060600160405280602581526020016117776025913960016000610be2610d65565b73ffffffffffffffffffffffffffffffffffffffff1673ffffffffffffffffffffffffffffffffffffffff16815260200190815260200160002060008a73ffffffffffffffffffffffffffffffffffffffff1673ffffffffffffffffffffffffffffffffffffffff1681526020019081526020016000205461121a9092919063ffffffff16565b610d6d565b6001905092915050565b6000610c8c610c85610d65565b8484610f64565b6001905092915050565b60075481565b6000600160008473ffffffffffffffffffffffffffffffffffffffff1673ffffffffffffffffffffffffffffffffffffffff16815260200190815260200160002060008373ffffffffffffffffffffffffffffffffffffffff1673ffffffffffffffffffffffffffffffffffffffff16815260200190815260200160002054905092915050565b60086020528060005260406000206000915090505481565b6000600960009054906101000a900473ffffffffffffffffffffffffffffffffffffffff16905090565b600033905090565b600073ffffffffffffffffffffffffffffffffffffffff168373ffffffffffffffffffffffffffffffffffffffff161415610df3576040517f08c379a00000000000000000000000000000000000000000000000000000000081526004018080602001828103825260248152602001806117536024913960400191505060405180910390fd5b600073ffffffffffffffffffffffffffffffffffffffff168273ffffffffffffffffffffffffffffffffffffffff161415610e79576040517f08c379a00000000000000000000000000000000000000000000000000000000081526004018080602001828103825260228152602001806116796022913960400191505060405180910390fd5b80600160008573ffffffffffffffffffffffffffffffffffffffff1673ffffffffffffffffffffffffffffffffffffffff16815260200190815260200160002060008473ffffffffffffffffffffffffffffffffffffffff1673ffffffffffffffffffffffffffffffffffffffff168152602001908152602001600020819055508173ffffffffffffffffffffffffffffffffffffffff168373ffffffffffffffffffffffffffffffffffffffff167f8c5be1e5ebec7d5bd14f71427d1e84f3dd0314c0f7b2291e5b200ac8c7c3b925836040518082815260200191505060405180910390a3505050565b600073ffffffffffffffffffffffffffffffffffffffff168373ffffffffffffffffffffffffffffffffffffffff161415610fea576040517f08c379a000000000000000000000000000000000000000000000000000000000815260040180806020018281038252602581526020018061172e6025913960400191505060405180910390fd5b600073ffffffffffffffffffffffffffffffffffffffff168273ffffffffffffffffffffffffffffffffffffffff161415611070576040517f08c379a00000000000000000000000000000000000000000000000000000000081526004018080602001828103825260238152602001806116346023913960400191505060405180910390fd5b6110db8160405180606001604052806026815260200161169b602691396000808773ffffffffffffffffffffffffffffffffffffffff1673ffffffffffffffffffffffffffffffffffffffff1681526020019081526020016000205461121a9092919063ffffffff16565b6000808573ffffffffffffffffffffffffffffffffffffffff1673ffffffffffffffffffffffffffffffffffffffff1681526020019081526020016000208190555061116e816000808573ffffffffffffffffffffffffffffffffffffffff1673ffffffffffffffffffffffffffffffffffffffff168152602001908152602001600020546112da90919063ffffffff16565b6000808473ffffffffffffffffffffffffffffffffffffffff1673ffffffffffffffffffffffffffffffffffffffff168152602001908152602001600020819055508173ffffffffffffffffffffffffffffffffffffffff168373ffffffffffffffffffffffffffffffffffffffff167fddf252ad1be2c89b69c2b068fc378daa952ba7f163c4a11628f55a4df523b3ef836040518082815260200191505060405180910390a3505050565b60008383111582906112c7576040517f08c379a00000000000000000000000000000000000000000000000000000000081526004018080602001828103825283818151815260200191508051906020019080838360005b8381101561128c578082015181840152602081019050611271565b50505050905090810190601f1680156112b95780820380516001836020036101000a031916815260200191505b509250505060405180910390fd5b5060008385039050809150509392505050565b600080828401905083811015611358576040517f08c379a000000000000000000000000000000000000000000000000000000000815260040180806020018281038252601b8152602001807f536166654d6174683a206164646974696f6e206f766572666c6f77000000000081525060200191505060405180910390fd5b8091505092915050565b600073ffffffffffffffffffffffffffffffffffffffff168273ffffffffffffffffffffffffffffffffffffffff1614156113e8576040517f08c379a000000000000000000000000000000000000000000000000000000000815260040180806020018281038252602181526020018061170d6021913960400191505060405180910390fd5b61145381604051806060016040528060228152602001611657602291396000808673ffffffffffffffffffffffffffffffffffffffff1673ffffffffffffffffffffffffffffffffffffffff1681526020019081526020016000205461121a9092919063ffffffff16565b6000808473ffffffffffffffffffffffffffffffffffffffff1673ffffffffffffffffffffffffffffffffffffffff168152602001908152602001600020819055506114aa816002546115e990919063ffffffff16565b600281905550600073ffffffffffffffffffffffffffffffffffffffff168273ffffffffffffffffffffffffffffffffffffffff167fddf252ad1be2c89b69c2b068fc378daa952ba7f163c4a11628f55a4df523b3ef836040518082815260200191505060405180910390a35050565b6115248282611362565b6115e582611530610d65565b6115e0846040518060600160405280602481526020016116e960249139600160008973ffffffffffffffffffffffffffffffffffffffff1673ffffffffffffffffffffffffffffffffffffffff1681526020019081526020016000206000611596610d65565b73ffffffffffffffffffffffffffffffffffffffff1673ffffffffffffffffffffffffffffffffffffffff1681526020019081526020016000205461121a9092919063ffffffff16565b610d6d565b5050565b600061162b83836040518060400160405280601e81526020017f536166654d6174683a207375627472616374696f6e206f766572666c6f77000081525061121a565b90509291505056fe45524332303a207472616e7366657220746f20746865207a65726f206164647265737345524332303a206275726e20616d6f756e7420657863656564732062616c616e636545524332303a20617070726f766520746f20746865207a65726f206164647265737345524332303a207472616e7366657220616d6f756e7420657863656564732062616c616e636545524332303a207472616e7366657220616d6f756e74206578636565647320616c6c6f77616e636545524332303a206275726e20616d6f756e74206578636565647320616c6c6f77616e636545524332303a206275726e2066726f6d20746865207a65726f206164647265737345524332303a207472616e736665722066726f6d20746865207a65726f206164647265737345524332303a20617070726f76652066726f6d20746865207a65726f206164647265737345524332303a2064656372656173656420616c6c6f77616e63652062656c6f77207a65726fa265627a7a723158202e03786fbb9d34b96aaff658a21e2393517d0446471a6aab6dc71d712772192a64736f6c63430005100032",
  "source": "// SPDX-License-Identifier: MIT\npragma solidity >=0.4.21 <0.7.0;\n\nimport \"@openzeppelin/contracts/token/ERC20/ERC20Burnable.sol\";\n\ncontract LTO is ERC20Burnable {\n    string public name = \"Lotto\";\n    uint256 public game_ID;\n    string public symbol = \"LTO\";\n    uint256 public decimals = 0;\n    uint256 public SUPPLY; \n\n    mapping (address => uint256) public balance;\n\n    address public minter; //me\n\n    //the supply amount is set by the ticket contract.\n    constructor(uint256 supply, uint game_id) public {\n        SUPPLY = supply;\n        _mint(msg.sender, SUPPLY);   //I own the full supply\n        minter = msg.sender;\n        game_ID = game_id;\n    }\n\n    function getName() public view returns(string memory){\n    \treturn symbol;\n    }\n\n    function getMinter() public view returns(address add){\n        return minter;\n    }\n    \n}\n\ncontract Game {\n    //the game number that the coin was born into.\n    uint public game_number;\n\n    uint SEED = 1000;\n\n    //the number of tokens for the current game\n    uint public total_supply;\n\n    //we need to keep track of the current supply of coins.\n    uint public current_supply;\n\n    //owner (me)\n    address public owner;\n\n    LTO game_token;\n\n    //constructor to generate a Game. This starts a game with a random supply of coins\n    constructor() public{\n        owner = msg.sender;\n        total_supply = gen_random_supply(game_number); //generate the random total supply\n        LTO tick  = new LTO(total_supply, game_number);\n        game_token = tick;\n        current_supply = 0; //currently there are no tokens that have been sent out.\n    }\n\n    function gen_random_supply(uint nonce) public view returns (uint256 val){\n        uint number = uint(keccak256(abi.encodePacked(now, msg.sender,nonce))) % 100000; \n        return number; \n    }\n\n    //running the ticket contract should have a method to initiate a transfer of some number of\n    //tokens to the contract called address\n    function generateTokens(address rx) public{\n        uint nonce = 2;\n        uint number = uint(keccak256(abi.encodePacked(now, msg.sender,nonce))) % 100;  //uniform dist [0,100]\n        game_token.transferFrom(owner, rx, number);\n        current_supply = current_supply+ number; //increment the existing coins\n\n    }\n\n    //allows a token owner to exchange 100 tokens for another lotto ticket.\n    function exchangeTickets(address rx) public{\n        game_token.burnFrom(rx, 100); //burn 100 tickets\n        current_supply = current_supply - 100; //update the current supply\n\n        generateTokens(rx); //run a lotto\n    }\n\n    function getToken() public returns (LTO t){\n        return game_token;\n    }\n\n\n    //when the game is over, TODO, need to figure out the best way to do this.\n    function endGame() public{\n        game_number = game_number+1;\n    }\n\n\n    //TODO: Decide on an end condition to this thing, im not 100% sold on having the supply reached be the limit, //people might just stop trading when it gets near.\n    //should be something more hidden. Everyhting in a contract is visible to any observer, so it needs to be a //bit more random.\n    //one option is to have the address of the buyer meet a certain condition.\n\n    function didGameEnd(address rx) public view returns(bool gameStatus){\n        uint256 addressInt = uint256(rx) %10000;\n        if(addressInt>SEED){\n            return true;\n        }\n        else{\n            return false;\n        }\n    }\n\n\n}\n\n\n",
  "sourcePath": "/Users/brianbigdelle/Desktop/Code/lotto/contracts/LTO.sol",
  "compiler": {
    "name": "solc",
    "version": "0.5.16+commit.9c3226ce.Emscripten.clang"
  },
  "schemaVersion": "3.3.3",
  "updatedAt": "2020-12-27T21:00:21.388Z",
  "devdoc": {
    "methods": {}
  },
  "userdoc": {
    "methods": {}
  }
}